{
  "abi": [
    {
      "type": "constructor",
      "inputs": [
        {
          "name": "_verifierAddress",
          "type": "address",
          "internalType": "address"
        },
        {
          "name": "_treasuryAddress",
          "type": "address",
          "internalType": "address"
        },
        {
          "name": "_initialFeePercent",
          "type": "uint256",
          "internalType": "uint256"
        }
      ],
      "stateMutability": "nonpayable"
    },
    {
      "type": "function",
      "name": "BASE_REWARD",
      "inputs": [],
      "outputs": [
        {
          "name": "",
          "type": "uint256",
          "internalType": "uint256"
        }
      ],
      "stateMutability": "view"
    },
    {
      "type": "function",
      "name": "BETA",
      "inputs": [],
      "outputs": [
        {
          "name": "",
          "type": "uint256",
          "internalType": "uint256"
        }
      ],
      "stateMutability": "view"
    },
    {
      "type": "function",
      "name": "MIN_STAKE_DURATION",
      "inputs": [],
      "outputs": [
        {
          "name": "",
          "type": "uint256",
          "internalType": "uint256"
        }
      ],
      "stateMutability": "view"
    },
    {
      "type": "function",
      "name": "approve",
      "inputs": [
        {
          "name": "to",
          "type": "address",
          "internalType": "address"
        },
        {
          "name": "tokenId",
          "type": "uint256",
          "internalType": "uint256"
        }
      ],
      "outputs": [],
      "stateMutability": "nonpayable"
    },
    {
      "type": "function",
      "name": "balanceOf",
      "inputs": [
        {
          "name": "owner",
          "type": "address",
          "internalType": "address"
        }
      ],
      "outputs": [
        {
          "name": "",
          "type": "uint256",
          "internalType": "uint256"
        }
      ],
      "stateMutability": "view"
    },
    {
      "type": "function",
      "name": "checkIn",
      "inputs": [
        {
          "name": "_signature",
          "type": "bytes",
          "internalType": "bytes"
        }
      ],
      "outputs": [],
      "stateMutability": "nonpayable"
    },
    {
      "type": "function",
      "name": "commitments",
      "inputs": [
        {
          "name": "",
          "type": "address",
          "internalType": "address"
        }
      ],
      "outputs": [
        {
          "name": "user",
          "type": "address",
          "internalType": "address"
        },
        {
          "name": "amountInPool",
          "type": "uint256",
          "internalType": "uint256"
        },
        {
          "name": "travelDate",
          "type": "uint256",
          "internalType": "uint256"
        },
        {
          "name": "destinationId",
          "type": "uint256",
          "internalType": "uint256"
        },
        {
          "name": "isProcessed",
          "type": "bool",
          "internalType": "bool"
        }
      ],
      "stateMutability": "view"
    },
    {
      "type": "function",
      "name": "destinationMetadata",
      "inputs": [
        {
          "name": "",
          "type": "uint256",
          "internalType": "uint256"
        }
      ],
      "outputs": [
        {
          "name": "",
          "type": "string",
          "internalType": "string"
        }
      ],
      "stateMutability": "view"
    },
    {
      "type": "function",
      "name": "destinationNames",
      "inputs": [
        {
          "name": "",
          "type": "uint256",
          "internalType": "uint256"
        }
      ],
      "outputs": [
        {
          "name": "",
          "type": "string",
          "internalType": "string"
        }
      ],
      "stateMutability": "view"
    },
    {
      "type": "function",
      "name": "getApproved",
      "inputs": [
        {
          "name": "tokenId",
          "type": "uint256",
          "internalType": "uint256"
        }
      ],
      "outputs": [
        {
          "name": "",
          "type": "address",
          "internalType": "address"
        }
      ],
      "stateMutability": "view"
    },
    {
      "type": "function",
      "name": "getJourneyNFTDetails",
      "inputs": [
        {
          "name": "tokenId",
          "type": "uint256",
          "internalType": "uint256"
        }
      ],
      "outputs": [
        {
          "name": "",
          "type": "tuple",
          "internalType": "struct Wanderify.JourneyNFT",
          "components": [
            {
              "name": "destinationId",
              "type": "uint256",
              "internalType": "uint256"
            },
            {
              "name": "completionDate",
              "type": "uint256",
              "internalType": "uint256"
            },
            {
              "name": "stakedAmount",
              "type": "uint256",
              "internalType": "uint256"
            },
            {
              "name": "rewardEarned",
              "type": "uint256",
              "internalType": "uint256"
            },
            {
              "name": "destinationName",
              "type": "string",
              "internalType": "string"
            }
          ]
        }
      ],
      "stateMutability": "view"
    },
    {
      "type": "function",
      "name": "getUserJourneyCount",
      "inputs": [
        {
          "name": "user",
          "type": "address",
          "internalType": "address"
        }
      ],
      "outputs": [
        {
          "name": "",
          "type": "uint256",
          "internalType": "uint256"
        }
      ],
      "stateMutability": "view"
    },
    {
      "type": "function",
      "name": "getUserJourneyNFTs",
      "inputs": [
        {
          "name": "user",
          "type": "address",
          "internalType": "address"
        }
      ],
      "outputs": [
        {
          "name": "",
          "type": "uint256[]",
          "internalType": "uint256[]"
        }
      ],
      "stateMutability": "view"
    },
    {
      "type": "function",
      "name": "isApprovedForAll",
      "inputs": [
        {
          "name": "owner",
          "type": "address",
          "internalType": "address"
        },
        {
          "name": "operator",
          "type": "address",
          "internalType": "address"
        }
      ],
      "outputs": [
        {
          "name": "",
          "type": "bool",
          "internalType": "bool"
        }
      ],
      "stateMutability": "view"
    },
    {
      "type": "function",
      "name": "journeyNFTs",
      "inputs": [
        {
          "name": "",
          "type": "uint256",
          "internalType": "uint256"
        }
      ],
      "outputs": [
        {
          "name": "destinationId",
          "type": "uint256",
          "internalType": "uint256"
        },
        {
          "name": "completionDate",
          "type": "uint256",
          "internalType": "uint256"
        },
        {
          "name": "stakedAmount",
          "type": "uint256",
          "internalType": "uint256"
        },
        {
          "name": "rewardEarned",
          "type": "uint256",
          "internalType": "uint256"
        },
        {
          "name": "destinationName",
          "type": "string",
          "internalType": "string"
        }
      ],
      "stateMutability": "view"
    },
    {
      "type": "function",
      "name": "locationPools",
      "inputs": [
        {
          "name": "",
          "type": "uint256",
          "internalType": "uint256"
        }
      ],
      "outputs": [
        {
          "name": "",
          "type": "uint256",
          "internalType": "uint256"
        }
      ],
      "stateMutability": "view"
    },
    {
      "type": "function",
      "name": "name",
      "inputs": [],
      "outputs": [
        {
          "name": "",
          "type": "string",
          "internalType": "string"
        }
      ],
      "stateMutability": "view"
    },
    {
      "type": "function",
      "name": "owner",
      "inputs": [],
      "outputs": [
        {
          "name": "",
          "type": "address",
          "internalType": "address"
        }
      ],
      "stateMutability": "view"
    },
    {
      "type": "function",
      "name": "ownerOf",
      "inputs": [
        {
          "name": "tokenId",
          "type": "uint256",
          "internalType": "uint256"
        }
      ],
      "outputs": [
        {
          "name": "",
          "type": "address",
          "internalType": "address"
        }
      ],
      "stateMutability": "view"
    },
    {
      "type": "function",
      "name": "pause",
      "inputs": [],
      "outputs": [],
      "stateMutability": "nonpayable"
    },
    {
      "type": "function",
      "name": "paused",
      "inputs": [],
      "outputs": [
        {
          "name": "",
          "type": "bool",
          "internalType": "bool"
        }
      ],
      "stateMutability": "view"
    },
    {
      "type": "function",
      "name": "placeValues",
      "inputs": [
        {
          "name": "",
          "type": "uint256",
          "internalType": "uint256"
        }
      ],
      "outputs": [
        {
          "name": "",
          "type": "uint256",
          "internalType": "uint256"
        }
      ],
      "stateMutability": "view"
    },
    {
      "type": "function",
      "name": "platformFeePercent",
      "inputs": [],
      "outputs": [
        {
          "name": "",
          "type": "uint256",
          "internalType": "uint256"
        }
      ],
      "stateMutability": "view"
    },
    {
      "type": "function",
      "name": "processFailure",
      "inputs": [],
      "outputs": [],
      "stateMutability": "nonpayable"
    },
    {
      "type": "function",
      "name": "renounceOwnership",
      "inputs": [],
      "outputs": [],
      "stateMutability": "nonpayable"
    },
    {
      "type": "function",
      "name": "safeTransferFrom",
      "inputs": [
        {
          "name": "from",
          "type": "address",
          "internalType": "address"
        },
        {
          "name": "to",
          "type": "address",
          "internalType": "address"
        },
        {
          "name": "tokenId",
          "type": "uint256",
          "internalType": "uint256"
        }
      ],
      "outputs": [],
      "stateMutability": "nonpayable"
    },
    {
      "type": "function",
      "name": "safeTransferFrom",
      "inputs": [
        {
          "name": "from",
          "type": "address",
          "internalType": "address"
        },
        {
          "name": "to",
          "type": "address",
          "internalType": "address"
        },
        {
          "name": "tokenId",
          "type": "uint256",
          "internalType": "uint256"
        },
        {
          "name": "data",
          "type": "bytes",
          "internalType": "bytes"
        }
      ],
      "outputs": [],
      "stateMutability": "nonpayable"
    },
    {
      "type": "function",
      "name": "seedPool",
      "inputs": [
        {
          "name": "_destinationId",
          "type": "uint256",
          "internalType": "uint256"
        }
      ],
      "outputs": [],
      "stateMutability": "payable"
    },
    {
      "type": "function",
      "name": "setApprovalForAll",
      "inputs": [
        {
          "name": "operator",
          "type": "address",
          "internalType": "address"
        },
        {
          "name": "approved",
          "type": "bool",
          "internalType": "bool"
        }
      ],
      "outputs": [],
      "stateMutability": "nonpayable"
    },
    {
      "type": "function",
      "name": "setDestinationMetadata",
      "inputs": [
        {
          "name": "_destinationId",
          "type": "uint256",
          "internalType": "uint256"
        },
        {
          "name": "_metadataURI",
          "type": "string",
          "internalType": "string"
        }
      ],
      "outputs": [],
      "stateMutability": "nonpayable"
    },
    {
      "type": "function",
      "name": "setDestinationName",
      "inputs": [
        {
          "name": "_destinationId",
          "type": "uint256",
          "internalType": "uint256"
        },
        {
          "name": "_name",
          "type": "string",
          "internalType": "string"
        }
      ],
      "outputs": [],
      "stateMutability": "nonpayable"
    },
    {
      "type": "function",
      "name": "setPlaceValue",
      "inputs": [
        {
          "name": "_destinationId",
          "type": "uint256",
          "internalType": "uint256"
        },
        {
          "name": "_value",
          "type": "uint256",
          "internalType": "uint256"
        }
      ],
      "outputs": [],
      "stateMutability": "nonpayable"
    },
    {
      "type": "function",
      "name": "setPlatformFeePercent",
      "inputs": [
        {
          "name": "_newFeePercent",
          "type": "uint256",
          "internalType": "uint256"
        }
      ],
      "outputs": [],
      "stateMutability": "nonpayable"
    },
    {
      "type": "function",
      "name": "setTreasuryAddress",
      "inputs": [
        {
          "name": "_newAddress",
          "type": "address",
          "internalType": "address"
        }
      ],
      "outputs": [],
      "stateMutability": "nonpayable"
    },
    {
      "type": "function",
      "name": "setVerifierAddress",
      "inputs": [
        {
          "name": "_newAddress",
          "type": "address",
          "internalType": "address"
        }
      ],
      "outputs": [],
      "stateMutability": "nonpayable"
    },
    {
      "type": "function",
      "name": "stake",
      "inputs": [
        {
          "name": "_destinationId",
          "type": "uint256",
          "internalType": "uint256"
        },
        {
          "name": "_travelDate",
          "type": "uint256",
          "internalType": "uint256"
        }
      ],
      "outputs": [],
      "stateMutability": "payable"
    },
    {
      "type": "function",
      "name": "supportsInterface",
      "inputs": [
        {
          "name": "interfaceId",
          "type": "bytes4",
          "internalType": "bytes4"
        }
      ],
      "outputs": [
        {
          "name": "",
          "type": "bool",
          "internalType": "bool"
        }
      ],
      "stateMutability": "view"
    },
    {
      "type": "function",
      "name": "symbol",
      "inputs": [],
      "outputs": [
        {
          "name": "",
          "type": "string",
          "internalType": "string"
        }
      ],
      "stateMutability": "view"
    },
    {
      "type": "function",
      "name": "tokenURI",
      "inputs": [
        {
          "name": "tokenId",
          "type": "uint256",
          "internalType": "uint256"
        }
      ],
      "outputs": [
        {
          "name": "",
          "type": "string",
          "internalType": "string"
        }
      ],
      "stateMutability": "view"
    },
    {
      "type": "function",
      "name": "transferFrom",
      "inputs": [
        {
          "name": "from",
          "type": "address",
          "internalType": "address"
        },
        {
          "name": "to",
          "type": "address",
          "internalType": "address"
        },
        {
          "name": "tokenId",
          "type": "uint256",
          "internalType": "uint256"
        }
      ],
      "outputs": [],
      "stateMutability": "nonpayable"
    },
    {
      "type": "function",
      "name": "transferOwnership",
      "inputs": [
        {
          "name": "newOwner",
          "type": "address",
          "internalType": "address"
        }
      ],
      "outputs": [],
      "stateMutability": "nonpayable"
    },
    {
      "type": "function",
      "name": "treasuryAddress",
      "inputs": [],
      "outputs": [
        {
          "name": "",
          "type": "address",
          "internalType": "address"
        }
      ],
      "stateMutability": "view"
    },
    {
      "type": "function",
      "name": "unpause",
      "inputs": [],
      "outputs": [],
      "stateMutability": "nonpayable"
    },
    {
      "type": "function",
      "name": "userJourneyNFTs",
      "inputs": [
        {
          "name": "",
          "type": "address",
          "internalType": "address"
        },
        {
          "name": "",
          "type": "uint256",
          "internalType": "uint256"
        }
      ],
      "outputs": [
        {
          "name": "",
          "type": "uint256",
          "internalType": "uint256"
        }
      ],
      "stateMutability": "view"
    },
    {
      "type": "function",
      "name": "userProfits",
      "inputs": [
        {
          "name": "",
          "type": "address",
          "internalType": "address"
        }
      ],
      "outputs": [
        {
          "name": "",
          "type": "uint256",
          "internalType": "uint256"
        }
      ],
      "stateMutability": "view"
    },
    {
      "type": "function",
      "name": "verifierAddress",
      "inputs": [],
      "outputs": [
        {
          "name": "",
          "type": "address",
          "internalType": "address"
        }
      ],
      "stateMutability": "view"
    },
    {
      "type": "function",
      "name": "withdrawFees",
      "inputs": [],
      "outputs": [],
      "stateMutability": "nonpayable"
    },
    {
      "type": "event",
      "name": "Approval",
      "inputs": [
        {
          "name": "owner",
          "type": "address",
          "indexed": true,
          "internalType": "address"
        },
        {
          "name": "approved",
          "type": "address",
          "indexed": true,
          "internalType": "address"
        },
        {
          "name": "tokenId",
          "type": "uint256",
          "indexed": true,
          "internalType": "uint256"
        }
      ],
      "anonymous": false
    },
    {
      "type": "event",
      "name": "ApprovalForAll",
      "inputs": [
        {
          "name": "owner",
          "type": "address",
          "indexed": true,
          "internalType": "address"
        },
        {
          "name": "operator",
          "type": "address",
          "indexed": true,
          "internalType": "address"
        },
        {
          "name": "approved",
          "type": "bool",
          "indexed": false,
          "internalType": "bool"
        }
      ],
      "anonymous": false
    },
    {
      "type": "event",
      "name": "BatchMetadataUpdate",
      "inputs": [
        {
          "name": "_fromTokenId",
          "type": "uint256",
          "indexed": false,
          "internalType": "uint256"
        },
        {
          "name": "_toTokenId",
          "type": "uint256",
          "indexed": false,
          "internalType": "uint256"
        }
      ],
      "anonymous": false
    },
    {
      "type": "event",
      "name": "CheckedIn",
      "inputs": [
        {
          "name": "user",
          "type": "address",
          "indexed": true,
          "internalType": "address"
        },
        {
          "name": "destinationId",
          "type": "uint256",
          "indexed": false,
          "internalType": "uint256"
        },
        {
          "name": "payout",
          "type": "uint256",
          "indexed": false,
          "internalType": "uint256"
        }
      ],
      "anonymous": false
    },
    {
      "type": "event",
      "name": "FailureProcessed",
      "inputs": [
        {
          "name": "user",
          "type": "address",
          "indexed": true,
          "internalType": "address"
        },
        {
          "name": "destinationId",
          "type": "uint256",
          "indexed": false,
          "internalType": "uint256"
        }
      ],
      "anonymous": false
    },
    {
      "type": "event",
      "name": "JourneyNFTMinted",
      "inputs": [
        {
          "name": "user",
          "type": "address",
          "indexed": true,
          "internalType": "address"
        },
        {
          "name": "tokenId",
          "type": "uint256",
          "indexed": true,
          "internalType": "uint256"
        },
        {
          "name": "destinationId",
          "type": "uint256",
          "indexed": true,
          "internalType": "uint256"
        }
      ],
      "anonymous": false
    },
    {
      "type": "event",
      "name": "MetadataUpdate",
      "inputs": [
        {
          "name": "_tokenId",
          "type": "uint256",
          "indexed": false,
          "internalType": "uint256"
        }
      ],
      "anonymous": false
    },
    {
      "type": "event",
      "name": "OwnershipTransferred",
      "inputs": [
        {
          "name": "previousOwner",
          "type": "address",
          "indexed": true,
          "internalType": "address"
        },
        {
          "name": "newOwner",
          "type": "address",
          "indexed": true,
          "internalType": "address"
        }
      ],
      "anonymous": false
    },
    {
      "type": "event",
      "name": "Paused",
      "inputs": [
        {
          "name": "account",
          "type": "address",
          "indexed": false,
          "internalType": "address"
        }
      ],
      "anonymous": false
    },
    {
      "type": "event",
      "name": "PoolSeeded",
      "inputs": [
        {
          "name": "destinationId",
          "type": "uint256",
          "indexed": true,
          "internalType": "uint256"
        },
        {
          "name": "amount",
          "type": "uint256",
          "indexed": false,
          "internalType": "uint256"
        }
      ],
      "anonymous": false
    },
    {
      "type": "event",
      "name": "ProfitRecorded",
      "inputs": [
        {
          "name": "user",
          "type": "address",
          "indexed": true,
          "internalType": "address"
        },
        {
          "name": "profit",
          "type": "uint256",
          "indexed": false,
          "internalType": "uint256"
        }
      ],
      "anonymous": false
    },
    {
      "type": "event",
      "name": "Staked",
      "inputs": [
        {
          "name": "user",
          "type": "address",
          "indexed": true,
          "internalType": "address"
        },
        {
          "name": "destinationId",
          "type": "uint256",
          "indexed": false,
          "internalType": "uint256"
        },
        {
          "name": "totalAmount",
          "type": "uint256",
          "indexed": false,
          "internalType": "uint256"
        },
        {
          "name": "travelDate",
          "type": "uint256",
          "indexed": false,
          "internalType": "uint256"
        }
      ],
      "anonymous": false
    },
    {
      "type": "event",
      "name": "Transfer",
      "inputs": [
        {
          "name": "from",
          "type": "address",
          "indexed": true,
          "internalType": "address"
        },
        {
          "name": "to",
          "type": "address",
          "indexed": true,
          "internalType": "address"
        },
        {
          "name": "tokenId",
          "type": "uint256",
          "indexed": true,
          "internalType": "uint256"
        }
      ],
      "anonymous": false
    },
    {
      "type": "event",
      "name": "Unpaused",
      "inputs": [
        {
          "name": "account",
          "type": "address",
          "indexed": false,
          "internalType": "address"
        }
      ],
      "anonymous": false
    }
  ],
  "bytecode": {
    "object": "0x608060405234801561000f575f5ffd5b506040516165b43803806165b483398181016040528101906100319190610405565b6040518060400160405280601181526020017f57616e646572696679204a6f75726e65790000000000000000000000000000008152506040518060400160405280600581526020017f574a524e59000000000000000000000000000000000000000000000000000000815250815f90816100ab9190610689565b5080600190816100bb9190610689565b5050506100da6100cf6102aa60201b60201c565b6102b160201b60201c565b60016008819055505f60095f6101000a81548160ff0219169083151502179055505f73ffffffffffffffffffffffffffffffffffffffff168373ffffffffffffffffffffffffffffffffffffffff1603610169576040517f08c379a0000000000000000000000000000000000000000000000000000000008152600401610160906107b2565b60405180910390fd5b5f73ffffffffffffffffffffffffffffffffffffffff168273ffffffffffffffffffffffffffffffffffffffff16036101d7576040517f08c379a00000000000000000000000000000000000000000000000000000000081526004016101ce9061081a565b60405180910390fd5b600581111561021b576040517f08c379a000000000000000000000000000000000000000000000000000000000815260040161021290610882565b60405180910390fd5b82600b5f6101000a81548173ffffffffffffffffffffffffffffffffffffffff021916908373ffffffffffffffffffffffffffffffffffffffff16021790555081600c5f6101000a81548173ffffffffffffffffffffffffffffffffffffffff021916908373ffffffffffffffffffffffffffffffffffffffff16021790555080600d819055505050506108a0565b5f33905090565b5f60075f9054906101000a900473ffffffffffffffffffffffffffffffffffffffff1690508160075f6101000a81548173ffffffffffffffffffffffffffffffffffffffff021916908373ffffffffffffffffffffffffffffffffffffffff1602179055508173ffffffffffffffffffffffffffffffffffffffff168173ffffffffffffffffffffffffffffffffffffffff167f8be0079c531659141344cd1fd0a4f28419497f9722a3daafe3b4186f6b6457e060405160405180910390a35050565b5f5ffd5b5f73ffffffffffffffffffffffffffffffffffffffff82169050919050565b5f6103a182610378565b9050919050565b6103b181610397565b81146103bb575f5ffd5b50565b5f815190506103cc816103a8565b92915050565b5f819050919050565b6103e4816103d2565b81146103ee575f5ffd5b50565b5f815190506103ff816103db565b92915050565b5f5f5f6060848603121561041c5761041b610374565b5b5f610429868287016103be565b935050602061043a868287016103be565b925050604061044b868287016103f1565b9150509250925092565b5f81519050919050565b7f4e487b71000000000000000000000000000000000000000000000000000000005f52604160045260245ffd5b7f4e487b71000000000000000000000000000000000000000000000000000000005f52602260045260245ffd5b5f60028204905060018216806104d057607f821691505b6020821081036104e3576104e261048c565b5b50919050565b5f819050815f5260205f209050919050565b5f6020601f8301049050919050565b5f82821b905092915050565b5f600883026105457fffffffffffffffffffffffffffffffffffffffffffffffffffffffffffffffff8261050a565b61054f868361050a565b95508019841693508086168417925050509392505050565b5f819050919050565b5f61058a610585610580846103d2565b610567565b6103d2565b9050919050565b5f819050919050565b6105a383610570565b6105b76105af82610591565b848454610516565b825550505050565b5f5f905090565b6105ce6105bf565b6105d981848461059a565b505050565b5b818110156105fc576105f15f826105c6565b6001810190506105df565b5050565b601f82111561064157610612816104e9565b61061b846104fb565b8101602085101561062a578190505b61063e610636856104fb565b8301826105de565b50505b505050565b5f82821c905092915050565b5f6106615f1984600802610646565b1980831691505092915050565b5f6106798383610652565b9150826002028217905092915050565b61069282610455565b67ffffffffffffffff8111156106ab576106aa61045f565b5b6106b582546104b9565b6106c0828285610600565b5f60209050601f8311600181146106f1575f84156106df578287015190505b6106e9858261066e565b865550610750565b601f1984166106ff866104e9565b5f5b8281101561072657848901518255600182019150602085019450602081019050610701565b86831015610743578489015161073f601f891682610652565b8355505b6001600288020188555050505b505050505050565b5f82825260208201905092915050565b7f56657269666965722063616e6e6f74206265207a65726f0000000000000000005f82015250565b5f61079c601783610758565b91506107a782610768565b602082019050919050565b5f6020820190508181035f8301526107c981610790565b9050919050565b7f54726561737572792063616e6e6f74206265207a65726f0000000000000000005f82015250565b5f610804601783610758565b915061080f826107d0565b602082019050919050565b5f6020820190508181035f830152610831816107f8565b9050919050565b7f4665652063616e6e6f74206578636565642035250000000000000000000000005f82015250565b5f61086c601483610758565b915061087782610838565b602082019050919050565b5f6020820190508181035f83015261089981610860565b9050919050565b615d07806108ad5f395ff3fe608060405260043610610287575f3560e01c80635c975abb11610159578063a22cb465116100c0578063cab230d211610079578063cab230d2146109ab578063e0c570ba146109d3578063e237fc5e146109fd578063e8fcf72314610a3d578063e985e9c514610a7d578063f2fde38b14610ab957610287565b8063a22cb46514610891578063b88d4fde146108b9578063be354836146108e1578063c0c1fee51461091d578063c5f956af14610945578063c87b56dd1461096f57610287565b80638456cb59116101125780638456cb59146107995780638c639a85146107af5780638da5cb5b146107d957806395d89b41146108035780639f2a4bbd1461082d578063a0d9eeab1461086957610287565b80635c975abb1461069d5780636352211e146106c75780636605bfda1461070357806370a082311461072b578063715018a6146107675780637b0472f01461077d57610287565b806322009af6116101fd57806335ac81cf116101b657806335ac81cf146105955780633f4ba83a146105d157806342842e0e146105e7578063476343ee1461060f5780634efa8eeb146106255780635c3e4f621461066157610287565b806322009af61461048d57806323b872dd146104b75780632d8fb7ab146104df578063304c44d11461051b57806331d56d3c14610543578063343634201461057f57610287565b8063095ea7b31161024f578063095ea7b3146103735780630e526b141461039b5780630e6bc64f146103d757806317cd87451461041357806317e955261461043b57806318bdffbb1461046357610287565b806301ffc9a71461028b578063025d26bd146102c757806306fdde03146102e3578063071a75411461030d578063081812fc14610337575b5f5ffd5b348015610296575f5ffd5b506102b160048036038101906102ac9190613d87565b610ae1565b6040516102be9190613dcc565b60405180910390f35b6102e160048036038101906102dc9190613e18565b610af2565b005b3480156102ee575f5ffd5b506102f7610b9e565b6040516103049190613eb3565b60405180910390f35b348015610318575f5ffd5b50610321610c2d565b60405161032e9190613ee2565b60405180910390f35b348015610342575f5ffd5b5061035d60048036038101906103589190613e18565b610c32565b60405161036a9190613f3a565b60405180910390f35b34801561037e575f5ffd5b5061039960048036038101906103949190613f7d565b610c74565b005b3480156103a6575f5ffd5b506103c160048036038101906103bc9190613f7d565b610d8a565b6040516103ce9190613ee2565b60405180910390f35b3480156103e2575f5ffd5b506103fd60048036038101906103f89190613e18565b610db5565b60405161040a9190613ee2565b60405180910390f35b34801561041e575f5ffd5b50610439600480360381019061043491906140e7565b610dca565b005b348015610446575f5ffd5b50610461600480360381019061045c9190614141565b610df5565b005b34801561046e575f5ffd5b50610477610eae565b6040516104849190613f3a565b60405180910390f35b348015610498575f5ffd5b506104a1610ed3565b6040516104ae9190613ee2565b60405180910390f35b3480156104c2575f5ffd5b506104dd60048036038101906104d8919061416c565b610edf565b005b3480156104ea575f5ffd5b5061050560048036038101906105009190614141565b610f3f565b6040516105129190614273565b60405180910390f35b348015610526575f5ffd5b50610541600480360381019061053c9190614331565b610fd2565b005b34801561054e575f5ffd5b5061056960048036038101906105649190613e18565b61150d565b6040516105769190613eb3565b60405180910390f35b34801561058a575f5ffd5b506105936115a8565b005b3480156105a0575f5ffd5b506105bb60048036038101906105b69190613e18565b611780565b6040516105c89190613ee2565b60405180910390f35b3480156105dc575f5ffd5b506105e5611795565b005b3480156105f2575f5ffd5b5061060d6004803603810190610608919061416c565b6117a7565b005b34801561061a575f5ffd5b506106236117c6565b005b348015610630575f5ffd5b5061064b60048036038101906106469190613e18565b61189f565b6040516106589190613eb3565b60405180910390f35b34801561066c575f5ffd5b5061068760048036038101906106829190614141565b61193a565b6040516106949190613ee2565b60405180910390f35b3480156106a8575f5ffd5b506106b1611983565b6040516106be9190613dcc565b60405180910390f35b3480156106d2575f5ffd5b506106ed60048036038101906106e89190613e18565b611998565b6040516106fa9190613f3a565b60405180910390f35b34801561070e575f5ffd5b5061072960048036038101906107249190614141565b611a1c565b005b348015610736575f5ffd5b50610751600480360381019061074c9190614141565b611ad5565b60405161075e9190613ee2565b60405180910390f35b348015610772575f5ffd5b5061077b611b89565b005b61079760048036038101906107929190614378565b611b9c565b005b3480156107a4575f5ffd5b506107ad611fd2565b005b3480156107ba575f5ffd5b506107c3611fe4565b6040516107d09190613ee2565b60405180910390f35b3480156107e4575f5ffd5b506107ed611fea565b6040516107fa9190613f3a565b60405180910390f35b34801561080e575f5ffd5b50610817612012565b6040516108249190613eb3565b60405180910390f35b348015610838575f5ffd5b50610853600480360381019061084e9190613e18565b6120a2565b6040516108609190614471565b60405180910390f35b348015610874575f5ffd5b5061088f600480360381019061088a91906140e7565b6121cc565b005b34801561089c575f5ffd5b506108b760048036038101906108b291906144bb565b6121f7565b005b3480156108c4575f5ffd5b506108df60048036038101906108da91906144f9565b61220d565b005b3480156108ec575f5ffd5b5061090760048036038101906109029190614141565b61226f565b6040516109149190613ee2565b60405180910390f35b348015610928575f5ffd5b50610943600480360381019061093e9190614378565b612284565b005b348015610950575f5ffd5b506109596122a6565b6040516109669190613f3a565b60405180910390f35b34801561097a575f5ffd5b5061099560048036038101906109909190613e18565b6122cb565b6040516109a29190613eb3565b60405180910390f35b3480156109b6575f5ffd5b506109d160048036038101906109cc9190613e18565b6122dd565b005b3480156109de575f5ffd5b506109e7612333565b6040516109f49190613ee2565b60405180910390f35b348015610a08575f5ffd5b50610a236004803603810190610a1e9190613e18565b61233a565b604051610a34959493929190614579565b60405180910390f35b348015610a48575f5ffd5b50610a636004803603810190610a5e9190614141565b6123f2565b604051610a749594939291906145d1565b60405180910390f35b348015610a88575f5ffd5b50610aa36004803603810190610a9e9190614622565b61244f565b604051610ab09190613dcc565b60405180910390f35b348015610ac4575f5ffd5b50610adf6004803603810190610ada9190614141565b6124dd565b005b5f610aeb8261255f565b9050919050565b610afa6125bf565b5f3411610b3c576040517f08c379a0000000000000000000000000000000000000000000000000000000008152600401610b33906146aa565b60405180910390fd5b34600e5f8381526020019081526020015f205f828254610b5c91906146f5565b92505081905550807f3ce3bc06c5a63b1ec4be80a76230f72728f9bdec240f0f1ee44b9f7906abb13734604051610b939190613ee2565b60405180910390a250565b60605f8054610bac90614755565b80601f0160208091040260200160405190810160405280929190818152602001828054610bd890614755565b8015610c235780601f10610bfa57610100808354040283529160200191610c23565b820191905f5260205f20905b815481529060010190602001808311610c0657829003601f168201915b5050505050905090565b603281565b5f610c3c8261263d565b60045f8381526020019081526020015f205f9054906101000a900473ffffffffffffffffffffffffffffffffffffffff169050919050565b5f610c7e82611998565b90508073ffffffffffffffffffffffffffffffffffffffff168373ffffffffffffffffffffffffffffffffffffffff1603610cee576040517f08c379a0000000000000000000000000000000000000000000000000000000008152600401610ce5906147f5565b60405180910390fd5b8073ffffffffffffffffffffffffffffffffffffffff16610d0d612688565b73ffffffffffffffffffffffffffffffffffffffff161480610d3c5750610d3b81610d36612688565b61244f565b5b610d7b576040517f08c379a0000000000000000000000000000000000000000000000000000000008152600401610d7290614883565b60405180910390fd5b610d85838361268f565b505050565b6013602052815f5260405f208181548110610da3575f80fd5b905f5260205f20015f91509150505481565b600f602052805f5260405f205f915090505481565b610dd26125bf565b8060155f8481526020019081526020015f209081610df09190614a41565b505050565b610dfd6125bf565b5f73ffffffffffffffffffffffffffffffffffffffff168173ffffffffffffffffffffffffffffffffffffffff1603610e6b576040517f08c379a0000000000000000000000000000000000000000000000000000000008152600401610e6290614b5a565b60405180910390fd5b80600b5f6101000a81548173ffffffffffffffffffffffffffffffffffffffff021916908373ffffffffffffffffffffffffffffffffffffffff16021790555050565b600b5f9054906101000a900473ffffffffffffffffffffffffffffffffffffffff1681565b678ac7230489e8000081565b610ef0610eea612688565b82612745565b610f2f576040517f08c379a0000000000000000000000000000000000000000000000000000000008152600401610f2690614be8565b60405180910390fd5b610f3a8383836127d9565b505050565b606060135f8373ffffffffffffffffffffffffffffffffffffffff1673ffffffffffffffffffffffffffffffffffffffff1681526020019081526020015f20805480602002602001604051908101604052809291908181526020018280548015610fc657602002820191905f5260205f20905b815481526020019060010190808311610fb2575b50505050509050919050565b610fda612ac5565b610fe2612b14565b5f60105f3373ffffffffffffffffffffffffffffffffffffffff1673ffffffffffffffffffffffffffffffffffffffff1681526020019081526020015f2090505f73ffffffffffffffffffffffffffffffffffffffff16815f015f9054906101000a900473ffffffffffffffffffffffffffffffffffffffff1673ffffffffffffffffffffffffffffffffffffffff16036110b2576040517f08c379a00000000000000000000000000000000000000000000000000000000081526004016110a990614c50565b60405180910390fd5b806004015f9054906101000a900460ff1615611103576040517f08c379a00000000000000000000000000000000000000000000000000000000081526004016110fa90614cb8565b60405180910390fd5b806002015442101561114a576040517f08c379a000000000000000000000000000000000000000000000000000000000815260040161114190614d20565b60405180910390fd5b5f338260030154604051602001611162929190614da3565b6040516020818303038152906040528051906020012090505f6111858285612b5e565b9050600b5f9054906101000a900473ffffffffffffffffffffffffffffffffffffffff1673ffffffffffffffffffffffffffffffffffffffff168173ffffffffffffffffffffffffffffffffffffffff1614611216576040517f08c379a000000000000000000000000000000000000000000000000000000000815260040161120d90614e3e565b60405180910390fd5b5f6064600f5f866003015481526020019081526020015f2054603261123b9190614e5c565b606461124791906146f5565b678ac7230489e8000061125a9190614e5c565b6112649190614eca565b90505f600a600e5f876003015481526020019081526020015f20546112899190614eca565b90505f818310611299578161129b565b825b90505f8187600101546112ae91906146f5565b90505f600d5411156113a3575f600d5460646112ca9190614efa565b606489600101546112db9190614e5c565b6112e59190614eca565b9050808211156113a1575f81836112fc9190614efa565b90508060115f3373ffffffffffffffffffffffffffffffffffffffff1673ffffffffffffffffffffffffffffffffffffffff1681526020019081526020015f205f82825461134a91906146f5565b925050819055503373ffffffffffffffffffffffffffffffffffffffff167f73460f842453f367d40ee9d5affc089fd7bbe81e8125be8b662776eb398c9fff826040516113979190613ee2565b60405180910390a2505b505b81600e5f896003015481526020019081526020015f205f8282546113c79190614efa565b925050819055506001876004015f6101000a81548160ff0219169083151502179055506113fe338860030154896001015485612bf3565b5f3373ffffffffffffffffffffffffffffffffffffffff168260405161142390614f5a565b5f6040518083038185875af1925050503d805f811461145d576040519150601f19603f3d011682016040523d82523d5f602084013e611462565b606091505b50509050806114a6576040517f08c379a000000000000000000000000000000000000000000000000000000000815260040161149d90614fb8565b60405180910390fd5b3373ffffffffffffffffffffffffffffffffffffffff167f621d62c6c0c4a0c35e883c6b27ad50ecc3093f08bfaf8aa5f58127d351feeb218960030154846040516114f2929190614fd6565b60405180910390a2505050505050505061150a612e96565b50565b6015602052805f5260405f205f91509050805461152990614755565b80601f016020809104026020016040519081016040528092919081815260200182805461155590614755565b80156115a05780601f10611577576101008083540402835291602001916115a0565b820191905f5260205f20905b81548152906001019060200180831161158357829003601f168201915b505050505081565b5f60105f3373ffffffffffffffffffffffffffffffffffffffff1673ffffffffffffffffffffffffffffffffffffffff1681526020019081526020015f2090505f73ffffffffffffffffffffffffffffffffffffffff16815f015f9054906101000a900473ffffffffffffffffffffffffffffffffffffffff1673ffffffffffffffffffffffffffffffffffffffff1603611678576040517f08c379a000000000000000000000000000000000000000000000000000000000815260040161166f90614c50565b60405180910390fd5b806004015f9054906101000a900460ff16156116c9576040517f08c379a00000000000000000000000000000000000000000000000000000000081526004016116c090614cb8565b60405180910390fd5b8060020154421161170f576040517f08c379a000000000000000000000000000000000000000000000000000000000815260040161170690615047565b60405180910390fd5b6001816004015f6101000a81548160ff0219169083151502179055503373ffffffffffffffffffffffffffffffffffffffff167fccbfbc20e0828111013fe4a72a3138c08d256ba5d5e21a11c6e101cb2187e02782600301546040516117759190613ee2565b60405180910390a250565b600e602052805f5260405f205f915090505481565b61179d6125bf565b6117a5612ea0565b565b6117c183838360405180602001604052805f81525061220d565b505050565b6117ce6125bf565b5f4790505f600c5f9054906101000a900473ffffffffffffffffffffffffffffffffffffffff1673ffffffffffffffffffffffffffffffffffffffff168260405161181890614f5a565b5f6040518083038185875af1925050503d805f8114611852576040519150601f19603f3d011682016040523d82523d5f602084013e611857565b606091505b505090508061189b576040517f08c379a0000000000000000000000000000000000000000000000000000000008152600401611892906150af565b60405180910390fd5b5050565b6014602052805f5260405f205f9150905080546118bb90614755565b80601f01602080910402602001604051908101604052809291908181526020018280546118e790614755565b80156119325780601f1061190957610100808354040283529160200191611932565b820191905f5260205f20905b81548152906001019060200180831161191557829003601f168201915b505050505081565b5f60135f8373ffffffffffffffffffffffffffffffffffffffff1673ffffffffffffffffffffffffffffffffffffffff1681526020019081526020015f20805490509050919050565b5f60095f9054906101000a900460ff16905090565b5f5f6119a383612f01565b90505f73ffffffffffffffffffffffffffffffffffffffff168173ffffffffffffffffffffffffffffffffffffffff1603611a13576040517f08c379a0000000000000000000000000000000000000000000000000000000008152600401611a0a90615117565b60405180910390fd5b80915050919050565b611a246125bf565b5f73ffffffffffffffffffffffffffffffffffffffff168173ffffffffffffffffffffffffffffffffffffffff1603611a92576040517f08c379a0000000000000000000000000000000000000000000000000000000008152600401611a8990614b5a565b60405180910390fd5b80600c5f6101000a81548173ffffffffffffffffffffffffffffffffffffffff021916908373ffffffffffffffffffffffffffffffffffffffff16021790555050565b5f5f73ffffffffffffffffffffffffffffffffffffffff168273ffffffffffffffffffffffffffffffffffffffff1603611b44576040517f08c379a0000000000000000000000000000000000000000000000000000000008152600401611b3b906151a5565b60405180910390fd5b60035f8373ffffffffffffffffffffffffffffffffffffffff1673ffffffffffffffffffffffffffffffffffffffff1681526020019081526020015f20549050919050565b611b916125bf565b611b9a5f612f3a565b565b611ba4612b14565b5f3411611be6576040517f08c379a0000000000000000000000000000000000000000000000000000000008152600401611bdd9061520d565b60405180910390fd5b6213c68042611bf591906146f5565b8111611c36576040517f08c379a0000000000000000000000000000000000000000000000000000000008152600401611c2d9061529b565b60405180910390fd5b6001151560105f3373ffffffffffffffffffffffffffffffffffffffff1673ffffffffffffffffffffffffffffffffffffffff1681526020019081526020015f206004015f9054906101000a900460ff1615151480611d1e57505f73ffffffffffffffffffffffffffffffffffffffff1660105f3373ffffffffffffffffffffffffffffffffffffffff1673ffffffffffffffffffffffffffffffffffffffff1681526020019081526020015f205f015f9054906101000a900473ffffffffffffffffffffffffffffffffffffffff1673ffffffffffffffffffffffffffffffffffffffff16145b611d5d576040517f08c379a0000000000000000000000000000000000000000000000000000000008152600401611d5490615303565b60405180910390fd5b5f6064600d5434611d6e9190614e5c565b611d789190614eca565b90505f8134611d879190614efa565b90505f600c5f9054906101000a900473ffffffffffffffffffffffffffffffffffffffff1673ffffffffffffffffffffffffffffffffffffffff1683604051611dcf90614f5a565b5f6040518083038185875af1925050503d805f8114611e09576040519150601f19603f3d011682016040523d82523d5f602084013e611e0e565b606091505b5050905080611e52576040517f08c379a0000000000000000000000000000000000000000000000000000000008152600401611e499061536b565b60405180910390fd5b81600e5f8781526020019081526020015f205f828254611e7291906146f5565b925050819055506040518060a001604052803373ffffffffffffffffffffffffffffffffffffffff1681526020018381526020018581526020018681526020015f151581525060105f3373ffffffffffffffffffffffffffffffffffffffff1673ffffffffffffffffffffffffffffffffffffffff1681526020019081526020015f205f820151815f015f6101000a81548173ffffffffffffffffffffffffffffffffffffffff021916908373ffffffffffffffffffffffffffffffffffffffff1602179055506020820151816001015560408201518160020155606082015181600301556080820151816004015f6101000a81548160ff0219169083151502179055509050503373ffffffffffffffffffffffffffffffffffffffff167fb4caaf29adda3eefee3ad552a8e85058589bf834c7466cae4ee58787f70589ed863487604051611fc393929190615389565b60405180910390a25050505050565b611fda6125bf565b611fe2612ffd565b565b600d5481565b5f60075f9054906101000a900473ffffffffffffffffffffffffffffffffffffffff16905090565b60606001805461202190614755565b80601f016020809104026020016040519081016040528092919081815260200182805461204d90614755565b80156120985780601f1061206f57610100808354040283529160200191612098565b820191905f5260205f20905b81548152906001019060200180831161207b57829003601f168201915b5050505050905090565b6120aa613cf6565b6120b38261305f565b6120f2576040517f08c379a00000000000000000000000000000000000000000000000000000000081526004016120e990615408565b60405180910390fd5b60125f8381526020019081526020015f206040518060a00160405290815f820154815260200160018201548152602001600282015481526020016003820154815260200160048201805461214590614755565b80601f016020809104026020016040519081016040528092919081815260200182805461217190614755565b80156121bc5780601f10612193576101008083540402835291602001916121bc565b820191905f5260205f20905b81548152906001019060200180831161219f57829003601f168201915b5050505050815250509050919050565b6121d46125bf565b8060145f8481526020019081526020015f2090816121f29190614a41565b505050565b612209612202612688565b838361309f565b5050565b61221e612218612688565b83612745565b61225d576040517f08c379a000000000000000000000000000000000000000000000000000000000815260040161225490614be8565b60405180910390fd5b61226984848484613206565b50505050565b6011602052805f5260405f205f915090505481565b61228c6125bf565b80600f5f8481526020019081526020015f20819055505050565b600c5f9054906101000a900473ffffffffffffffffffffffffffffffffffffffff1681565b60606122d682613262565b9050919050565b6122e56125bf565b6005811115612329576040517f08c379a000000000000000000000000000000000000000000000000000000000815260040161232090615470565b60405180910390fd5b80600d8190555050565b6213c68081565b6012602052805f5260405f205f91509050805f01549080600101549080600201549080600301549080600401805461237190614755565b80601f016020809104026020016040519081016040528092919081815260200182805461239d90614755565b80156123e85780601f106123bf576101008083540402835291602001916123e8565b820191905f5260205f20905b8154815290600101906020018083116123cb57829003601f168201915b5050505050905085565b6010602052805f5260405f205f91509050805f015f9054906101000a900473ffffffffffffffffffffffffffffffffffffffff1690806001015490806002015490806003015490806004015f9054906101000a900460ff16905085565b5f60055f8473ffffffffffffffffffffffffffffffffffffffff1673ffffffffffffffffffffffffffffffffffffffff1681526020019081526020015f205f8373ffffffffffffffffffffffffffffffffffffffff1673ffffffffffffffffffffffffffffffffffffffff1681526020019081526020015f205f9054906101000a900460ff16905092915050565b6124e56125bf565b5f73ffffffffffffffffffffffffffffffffffffffff168173ffffffffffffffffffffffffffffffffffffffff1603612553576040517f08c379a000000000000000000000000000000000000000000000000000000000815260040161254a906154fe565b60405180910390fd5b61255c81612f3a565b50565b5f634906490660e01b7bffffffffffffffffffffffffffffffffffffffffffffffffffffffff1916827bffffffffffffffffffffffffffffffffffffffffffffffffffffffff191614806125b857506125b78261336c565b5b9050919050565b6125c7612688565b73ffffffffffffffffffffffffffffffffffffffff166125e5611fea565b73ffffffffffffffffffffffffffffffffffffffff161461263b576040517f08c379a000000000000000000000000000000000000000000000000000000000815260040161263290615566565b60405180910390fd5b565b6126468161305f565b612685576040517f08c379a000000000000000000000000000000000000000000000000000000000815260040161267c90615117565b60405180910390fd5b50565b5f33905090565b8160045f8381526020019081526020015f205f6101000a81548173ffffffffffffffffffffffffffffffffffffffff021916908373ffffffffffffffffffffffffffffffffffffffff160217905550808273ffffffffffffffffffffffffffffffffffffffff166126ff83611998565b73ffffffffffffffffffffffffffffffffffffffff167f8c5be1e5ebec7d5bd14f71427d1e84f3dd0314c0f7b2291e5b200ac8c7c3b92560405160405180910390a45050565b5f5f61275083611998565b90508073ffffffffffffffffffffffffffffffffffffffff168473ffffffffffffffffffffffffffffffffffffffff1614806127925750612791818561244f565b5b806127d057508373ffffffffffffffffffffffffffffffffffffffff166127b884610c32565b73ffffffffffffffffffffffffffffffffffffffff16145b91505092915050565b8273ffffffffffffffffffffffffffffffffffffffff166127f982611998565b73ffffffffffffffffffffffffffffffffffffffff161461284f576040517f08c379a0000000000000000000000000000000000000000000000000000000008152600401612846906155f4565b60405180910390fd5b5f73ffffffffffffffffffffffffffffffffffffffff168273ffffffffffffffffffffffffffffffffffffffff16036128bd576040517f08c379a00000000000000000000000000000000000000000000000000000000081526004016128b490615682565b60405180910390fd5b6128ca838383600161344d565b8273ffffffffffffffffffffffffffffffffffffffff166128ea82611998565b73ffffffffffffffffffffffffffffffffffffffff1614612940576040517f08c379a0000000000000000000000000000000000000000000000000000000008152600401612937906155f4565b60405180910390fd5b60045f8281526020019081526020015f205f6101000a81549073ffffffffffffffffffffffffffffffffffffffff0219169055600160035f8573ffffffffffffffffffffffffffffffffffffffff1673ffffffffffffffffffffffffffffffffffffffff1681526020019081526020015f205f8282540392505081905550600160035f8473ffffffffffffffffffffffffffffffffffffffff1673ffffffffffffffffffffffffffffffffffffffff1681526020019081526020015f205f82825401925050819055508160025f8381526020019081526020015f205f6101000a81548173ffffffffffffffffffffffffffffffffffffffff021916908373ffffffffffffffffffffffffffffffffffffffff160217905550808273ffffffffffffffffffffffffffffffffffffffff168473ffffffffffffffffffffffffffffffffffffffff167fddf252ad1be2c89b69c2b068fc378daa952ba7f163c4a11628f55a4df523b3ef60405160405180910390a4612ac08383836001613453565b505050565b600260085403612b0a576040517f08c379a0000000000000000000000000000000000000000000000000000000008152600401612b01906156ea565b60405180910390fd5b6002600881905550565b612b1c611983565b15612b5c576040517f08c379a0000000000000000000000000000000000000000000000000000000008152600401612b5390615752565b60405180910390fd5b565b5f5f5f5f612b6b85613459565b9250925092505f86604051602001612b8391906157ed565b6040516020818303038152906040528051906020012090506001818585856040515f8152602001604052604051612bbd949392919061583c565b6020604051602081039080840390855afa158015612bdd573d5f5f3e3d5ffd5b5050506020604051035194505050505092915050565b5f612bfe600a6134be565b9050612c0a600a6134ca565b612c1485826134de565b6040518060a0016040528085815260200142815260200184815260200183815260200160145f8781526020019081526020015f208054612c5390614755565b80601f0160208091040260200160405190810160405280929190818152602001828054612c7f90614755565b8015612cca5780601f10612ca157610100808354040283529160200191612cca565b820191905f5260205f20905b815481529060010190602001808311612cad57829003601f168201915b505050505081525060125f8381526020019081526020015f205f820151815f01556020820151816001015560408201518160020155606082015181600301556080820151816004019081612d1e9190614a41565b5090505060135f8673ffffffffffffffffffffffffffffffffffffffff1673ffffffffffffffffffffffffffffffffffffffff1681526020019081526020015f2081908060018154018082558091505060019003905f5260205f20015f90919091909150555f60155f8681526020019081526020015f208054612da090614755565b90501115612e4a57612e498160155f8781526020019081526020015f208054612dc890614755565b80601f0160208091040260200160405190810160405280929190818152602001828054612df490614755565b8015612e3f5780601f10612e1657610100808354040283529160200191612e3f565b820191905f5260205f20905b815481529060010190602001808311612e2257829003601f168201915b50505050506134fb565b5b83818673ffffffffffffffffffffffffffffffffffffffff167f9b390198d06ba6c0d663c43b3008ef3478cd147df8f0e340591169b8835e8d2060405160405180910390a45050505050565b6001600881905550565b612ea861359d565b5f60095f6101000a81548160ff0219169083151502179055507f5db9ee0a495bf2e6ff9c91a7834c1ba4fdd244a5e8aa4e537bd38aeae4b073aa612eea612688565b604051612ef79190613f3a565b60405180910390a1565b5f60025f8381526020019081526020015f205f9054906101000a900473ffffffffffffffffffffffffffffffffffffffff169050919050565b5f60075f9054906101000a900473ffffffffffffffffffffffffffffffffffffffff1690508160075f6101000a81548173ffffffffffffffffffffffffffffffffffffffff021916908373ffffffffffffffffffffffffffffffffffffffff1602179055508173ffffffffffffffffffffffffffffffffffffffff168173ffffffffffffffffffffffffffffffffffffffff167f8be0079c531659141344cd1fd0a4f28419497f9722a3daafe3b4186f6b6457e060405160405180910390a35050565b613005612b14565b600160095f6101000a81548160ff0219169083151502179055507f62e78cea01bee320cd4e420270b5ea74000d11b0c9f74754ebdbfc544b05a258613048612688565b6040516130559190613f3a565b60405180910390a1565b5f5f73ffffffffffffffffffffffffffffffffffffffff1661308083612f01565b73ffffffffffffffffffffffffffffffffffffffff1614159050919050565b8173ffffffffffffffffffffffffffffffffffffffff168373ffffffffffffffffffffffffffffffffffffffff160361310d576040517f08c379a0000000000000000000000000000000000000000000000000000000008152600401613104906158c9565b60405180910390fd5b8060055f8573ffffffffffffffffffffffffffffffffffffffff1673ffffffffffffffffffffffffffffffffffffffff1681526020019081526020015f205f8473ffffffffffffffffffffffffffffffffffffffff1673ffffffffffffffffffffffffffffffffffffffff1681526020019081526020015f205f6101000a81548160ff0219169083151502179055508173ffffffffffffffffffffffffffffffffffffffff168373ffffffffffffffffffffffffffffffffffffffff167f17307eab39ab6107e8899845ad3d59bd9653f200f220920489ca2b5937696c31836040516131f99190613dcc565b60405180910390a3505050565b6132118484846127d9565b61321d848484846135e6565b61325c576040517f08c379a000000000000000000000000000000000000000000000000000000000815260040161325390615957565b60405180910390fd5b50505050565b606061326d8261263d565b5f60065f8481526020019081526020015f20805461328a90614755565b80601f01602080910402602001604051908101604052809291908181526020018280546132b690614755565b80156133015780601f106132d857610100808354040283529160200191613301565b820191905f5260205f20905b8154815290600101906020018083116132e457829003601f168201915b505050505090505f613311613768565b90505f815103613325578192505050613367565b5f825111156133595780826040516020016133419291906159a5565b60405160208183030381529060405292505050613367565b6133628461377e565b925050505b919050565b5f7f80ac58cd000000000000000000000000000000000000000000000000000000007bffffffffffffffffffffffffffffffffffffffffffffffffffffffff1916827bffffffffffffffffffffffffffffffffffffffffffffffffffffffff1916148061343657507f5b5e139f000000000000000000000000000000000000000000000000000000007bffffffffffffffffffffffffffffffffffffffffffffffffffffffff1916827bffffffffffffffffffffffffffffffffffffffffffffffffffffffff1916145b806134465750613445826137e3565b5b9050919050565b50505050565b50505050565b5f5f5f60418451146134a0576040517f08c379a000000000000000000000000000000000000000000000000000000000815260040161349790615a12565b60405180910390fd5b602084015191506040840151905060608401515f1a92509193909250565b5f815f01549050919050565b6001815f015f828254019250508190555050565b6134f7828260405180602001604052805f81525061384c565b5050565b6135048261305f565b613543576040517f08c379a000000000000000000000000000000000000000000000000000000000815260040161353a90615aa0565b60405180910390fd5b8060065f8481526020019081526020015f2090816135619190614a41565b507ff8e1a15aba9398e019f0b49df1a4fde98ee17ae345cb5f6b5e2c27f5033e8ce7826040516135919190613ee2565b60405180910390a15050565b6135a5611983565b6135e4576040517f08c379a00000000000000000000000000000000000000000000000000000000081526004016135db90615b08565b60405180910390fd5b565b5f6136068473ffffffffffffffffffffffffffffffffffffffff166138a6565b1561375b578373ffffffffffffffffffffffffffffffffffffffff1663150b7a0261362f612688565b8786866040518563ffffffff1660e01b81526004016136519493929190615b78565b6020604051808303815f875af192505050801561368c57506040513d601f19601f820116820180604052508101906136899190615bd6565b60015b61370b573d805f81146136ba576040519150601f19603f3d011682016040523d82523d5f602084013e6136bf565b606091505b505f815103613703576040517f08c379a00000000000000000000000000000000000000000000000000000000081526004016136fa90615957565b60405180910390fd5b805181602001fd5b63150b7a0260e01b7bffffffffffffffffffffffffffffffffffffffffffffffffffffffff1916817bffffffffffffffffffffffffffffffffffffffffffffffffffffffff191614915050613760565b600190505b949350505050565b606060405180602001604052805f815250905090565b60606137898261263d565b5f613792613768565b90505f8151116137b05760405180602001604052805f8152506137db565b806137ba846138c8565b6040516020016137cb9291906159a5565b6040516020818303038152906040525b915050919050565b5f7f01ffc9a7000000000000000000000000000000000000000000000000000000007bffffffffffffffffffffffffffffffffffffffffffffffffffffffff1916827bffffffffffffffffffffffffffffffffffffffffffffffffffffffff1916149050919050565b6138568383613992565b6138625f8484846135e6565b6138a1576040517f08c379a000000000000000000000000000000000000000000000000000000000815260040161389890615957565b60405180910390fd5b505050565b5f5f8273ffffffffffffffffffffffffffffffffffffffff163b119050919050565b60605f60016138d684613ba5565b0190505f8167ffffffffffffffff8111156138f4576138f3613fc3565b5b6040519080825280601f01601f1916602001820160405280156139265781602001600182028036833780820191505090505b5090505f82602001820190505b600115613987578080600190039150507f3031323334353637383961626364656600000000000000000000000000000000600a86061a8153600a858161397c5761397b614e9d565b5b0494505f8503613933575b819350505050919050565b5f73ffffffffffffffffffffffffffffffffffffffff168273ffffffffffffffffffffffffffffffffffffffff1603613a00576040517f08c379a00000000000000000000000000000000000000000000000000000000081526004016139f790615c4b565b60405180910390fd5b613a098161305f565b15613a49576040517f08c379a0000000000000000000000000000000000000000000000000000000008152600401613a4090615cb3565b60405180910390fd5b613a565f8383600161344d565b613a5f8161305f565b15613a9f576040517f08c379a0000000000000000000000000000000000000000000000000000000008152600401613a9690615cb3565b60405180910390fd5b600160035f8473ffffffffffffffffffffffffffffffffffffffff1673ffffffffffffffffffffffffffffffffffffffff1681526020019081526020015f205f82825401925050819055508160025f8381526020019081526020015f205f6101000a81548173ffffffffffffffffffffffffffffffffffffffff021916908373ffffffffffffffffffffffffffffffffffffffff160217905550808273ffffffffffffffffffffffffffffffffffffffff165f73ffffffffffffffffffffffffffffffffffffffff167fddf252ad1be2c89b69c2b068fc378daa952ba7f163c4a11628f55a4df523b3ef60405160405180910390a4613ba15f83836001613453565b5050565b5f5f5f90507a184f03e93ff9f4daa797ed6e38ed64bf6a1f0100000000000000008310613c01577a184f03e93ff9f4daa797ed6e38ed64bf6a1f0100000000000000008381613bf757613bf6614e9d565b5b0492506040810190505b6d04ee2d6d415b85acef81000000008310613c3e576d04ee2d6d415b85acef81000000008381613c3457613c33614e9d565b5b0492506020810190505b662386f26fc100008310613c6d57662386f26fc100008381613c6357613c62614e9d565b5b0492506010810190505b6305f5e1008310613c96576305f5e1008381613c8c57613c8b614e9d565b5b0492506008810190505b6127108310613cbb576127108381613cb157613cb0614e9d565b5b0492506004810190505b60648310613cde5760648381613cd457613cd3614e9d565b5b0492506002810190505b600a8310613ced576001810190505b80915050919050565b6040518060a001604052805f81526020015f81526020015f81526020015f8152602001606081525090565b5f604051905090565b5f5ffd5b5f5ffd5b5f7fffffffff0000000000000000000000000000000000000000000000000000000082169050919050565b613d6681613d32565b8114613d70575f5ffd5b50565b5f81359050613d8181613d5d565b92915050565b5f60208284031215613d9c57613d9b613d2a565b5b5f613da984828501613d73565b91505092915050565b5f8115159050919050565b613dc681613db2565b82525050565b5f602082019050613ddf5f830184613dbd565b92915050565b5f819050919050565b613df781613de5565b8114613e01575f5ffd5b50565b5f81359050613e1281613dee565b92915050565b5f60208284031215613e2d57613e2c613d2a565b5b5f613e3a84828501613e04565b91505092915050565b5f81519050919050565b5f82825260208201905092915050565b8281835e5f83830152505050565b5f601f19601f8301169050919050565b5f613e8582613e43565b613e8f8185613e4d565b9350613e9f818560208601613e5d565b613ea881613e6b565b840191505092915050565b5f6020820190508181035f830152613ecb8184613e7b565b905092915050565b613edc81613de5565b82525050565b5f602082019050613ef55f830184613ed3565b92915050565b5f73ffffffffffffffffffffffffffffffffffffffff82169050919050565b5f613f2482613efb565b9050919050565b613f3481613f1a565b82525050565b5f602082019050613f4d5f830184613f2b565b92915050565b613f5c81613f1a565b8114613f66575f5ffd5b50565b5f81359050613f7781613f53565b92915050565b5f5f60408385031215613f9357613f92613d2a565b5b5f613fa085828601613f69565b9250506020613fb185828601613e04565b9150509250929050565b5f5ffd5b5f5ffd5b7f4e487b71000000000000000000000000000000000000000000000000000000005f52604160045260245ffd5b613ff982613e6b565b810181811067ffffffffffffffff8211171561401857614017613fc3565b5b80604052505050565b5f61402a613d21565b90506140368282613ff0565b919050565b5f67ffffffffffffffff82111561405557614054613fc3565b5b61405e82613e6b565b9050602081019050919050565b828183375f83830152505050565b5f61408b6140868461403b565b614021565b9050828152602081018484840111156140a7576140a6613fbf565b5b6140b284828561406b565b509392505050565b5f82601f8301126140ce576140cd613fbb565b5b81356140de848260208601614079565b91505092915050565b5f5f604083850312156140fd576140fc613d2a565b5b5f61410a85828601613e04565b925050602083013567ffffffffffffffff81111561412b5761412a613d2e565b5b614137858286016140ba565b9150509250929050565b5f6020828403121561415657614155613d2a565b5b5f61416384828501613f69565b91505092915050565b5f5f5f6060848603121561418357614182613d2a565b5b5f61419086828701613f69565b93505060206141a186828701613f69565b92505060406141b286828701613e04565b9150509250925092565b5f81519050919050565b5f82825260208201905092915050565b5f819050602082019050919050565b6141ee81613de5565b82525050565b5f6141ff83836141e5565b60208301905092915050565b5f602082019050919050565b5f614221826141bc565b61422b81856141c6565b9350614236836141d6565b805f5b8381101561426657815161424d88826141f4565b97506142588361420b565b925050600181019050614239565b5085935050505092915050565b5f6020820190508181035f83015261428b8184614217565b905092915050565b5f67ffffffffffffffff8211156142ad576142ac613fc3565b5b6142b682613e6b565b9050602081019050919050565b5f6142d56142d084614293565b614021565b9050828152602081018484840111156142f1576142f0613fbf565b5b6142fc84828561406b565b509392505050565b5f82601f83011261431857614317613fbb565b5b81356143288482602086016142c3565b91505092915050565b5f6020828403121561434657614345613d2a565b5b5f82013567ffffffffffffffff81111561436357614362613d2e565b5b61436f84828501614304565b91505092915050565b5f5f6040838503121561438e5761438d613d2a565b5b5f61439b85828601613e04565b92505060206143ac85828601613e04565b9150509250929050565b5f82825260208201905092915050565b5f6143d082613e43565b6143da81856143b6565b93506143ea818560208601613e5d565b6143f381613e6b565b840191505092915050565b5f60a083015f8301516144135f8601826141e5565b50602083015161442660208601826141e5565b50604083015161443960408601826141e5565b50606083015161444c60608601826141e5565b506080830151848203608086015261446482826143c6565b9150508091505092915050565b5f6020820190508181035f83015261448981846143fe565b905092915050565b61449a81613db2565b81146144a4575f5ffd5b50565b5f813590506144b581614491565b92915050565b5f5f604083850312156144d1576144d0613d2a565b5b5f6144de85828601613f69565b92505060206144ef858286016144a7565b9150509250929050565b5f5f5f5f6080858703121561451157614510613d2a565b5b5f61451e87828801613f69565b945050602061452f87828801613f69565b935050604061454087828801613e04565b925050606085013567ffffffffffffffff81111561456157614560613d2e565b5b61456d87828801614304565b91505092959194509250565b5f60a08201905061458c5f830188613ed3565b6145996020830187613ed3565b6145a66040830186613ed3565b6145b36060830185613ed3565b81810360808301526145c58184613e7b565b90509695505050505050565b5f60a0820190506145e45f830188613f2b565b6145f16020830187613ed3565b6145fe6040830186613ed3565b61460b6060830185613ed3565b6146186080830184613dbd565b9695505050505050565b5f5f6040838503121561463857614637613d2a565b5b5f61464585828601613f69565b925050602061465685828601613f69565b9150509250929050565b7f53656564206d757374206265203e3000000000000000000000000000000000005f82015250565b5f614694600f83613e4d565b915061469f82614660565b602082019050919050565b5f6020820190508181035f8301526146c181614688565b9050919050565b7f4e487b71000000000000000000000000000000000000000000000000000000005f52601160045260245ffd5b5f6146ff82613de5565b915061470a83613de5565b9250828201905080821115614722576147216146c8565b5b92915050565b7f4e487b71000000000000000000000000000000000000000000000000000000005f52602260045260245ffd5b5f600282049050600182168061476c57607f821691505b60208210810361477f5761477e614728565b5b50919050565b7f4552433732313a20617070726f76616c20746f2063757272656e74206f776e655f8201527f7200000000000000000000000000000000000000000000000000000000000000602082015250565b5f6147df602183613e4d565b91506147ea82614785565b604082019050919050565b5f6020820190508181035f83015261480c816147d3565b9050919050565b7f4552433732313a20617070726f76652063616c6c6572206973206e6f7420746f5f8201527f6b656e206f776e6572206f7220617070726f76656420666f7220616c6c000000602082015250565b5f61486d603d83613e4d565b915061487882614813565b604082019050919050565b5f6020820190508181035f83015261489a81614861565b9050919050565b5f819050815f5260205f209050919050565b5f6020601f8301049050919050565b5f82821b905092915050565b5f600883026148fd7fffffffffffffffffffffffffffffffffffffffffffffffffffffffffffffffff826148c2565b61490786836148c2565b95508019841693508086168417925050509392505050565b5f819050919050565b5f61494261493d61493884613de5565b61491f565b613de5565b9050919050565b5f819050919050565b61495b83614928565b61496f61496782614949565b8484546148ce565b825550505050565b5f5f905090565b614986614977565b614991818484614952565b505050565b5b818110156149b4576149a95f8261497e565b600181019050614997565b5050565b601f8211156149f9576149ca816148a1565b6149d3846148b3565b810160208510156149e2578190505b6149f66149ee856148b3565b830182614996565b50505b505050565b5f82821c905092915050565b5f614a195f19846008026149fe565b1980831691505092915050565b5f614a318383614a0a565b9150826002028217905092915050565b614a4a82613e43565b67ffffffffffffffff811115614a6357614a62613fc3565b5b614a6d8254614755565b614a788282856149b8565b5f60209050601f831160018114614aa9575f8415614a97578287015190505b614aa18582614a26565b865550614b08565b601f198416614ab7866148a1565b5f5b82811015614ade57848901518255600182019150602085019450602081019050614ab9565b86831015614afb5784890151614af7601f891682614a0a565b8355505b6001600288020188555050505b505050505050565b7f43616e6e6f74206265207a65726f2061646472657373000000000000000000005f82015250565b5f614b44601683613e4d565b9150614b4f82614b10565b602082019050919050565b5f6020820190508181035f830152614b7181614b38565b9050919050565b7f4552433732313a2063616c6c6572206973206e6f7420746f6b656e206f776e655f8201527f72206f7220617070726f76656400000000000000000000000000000000000000602082015250565b5f614bd2602d83613e4d565b9150614bdd82614b78565b604082019050919050565b5f6020820190508181035f830152614bff81614bc6565b9050919050565b7f4e6f2061637469766520636f6d6d69746d656e740000000000000000000000005f82015250565b5f614c3a601483613e4d565b9150614c4582614c06565b602082019050919050565b5f6020820190508181035f830152614c6781614c2e565b9050919050565b7f436f6d6d69746d656e7420616c72656164792070726f636573736564000000005f82015250565b5f614ca2601c83613e4d565b9150614cad82614c6e565b602082019050919050565b5f6020820190508181035f830152614ccf81614c96565b9050919050565b7f54726176656c2064617465206e6f7420726561636865642079657400000000005f82015250565b5f614d0a601b83613e4d565b9150614d1582614cd6565b602082019050919050565b5f6020820190508181035f830152614d3781614cfe565b9050919050565b5f8160601b9050919050565b5f614d5482614d3e565b9050919050565b5f614d6582614d4a565b9050919050565b614d7d614d7882613f1a565b614d5b565b82525050565b5f819050919050565b614d9d614d9882613de5565b614d83565b82525050565b5f614dae8285614d6c565b601482019150614dbe8284614d8c565b6020820191508190509392505050565b7f496e76616c6964207369676e61747572653a206e6f742066726f6d20766572695f8201527f6669657200000000000000000000000000000000000000000000000000000000602082015250565b5f614e28602483613e4d565b9150614e3382614dce565b604082019050919050565b5f6020820190508181035f830152614e5581614e1c565b9050919050565b5f614e6682613de5565b9150614e7183613de5565b9250828202614e7f81613de5565b91508282048414831517614e9657614e956146c8565b5b5092915050565b7f4e487b71000000000000000000000000000000000000000000000000000000005f52601260045260245ffd5b5f614ed482613de5565b9150614edf83613de5565b925082614eef57614eee614e9d565b5b828204905092915050565b5f614f0482613de5565b9150614f0f83613de5565b9250828203905081811115614f2757614f266146c8565b5b92915050565b5f81905092915050565b50565b5f614f455f83614f2d565b9150614f5082614f37565b5f82019050919050565b5f614f6482614f3a565b9150819050919050565b7f5061796f7574206661696c6564000000000000000000000000000000000000005f82015250565b5f614fa2600d83613e4d565b9150614fad82614f6e565b602082019050919050565b5f6020820190508181035f830152614fcf81614f96565b9050919050565b5f604082019050614fe95f830185613ed3565b614ff66020830184613ed3565b9392505050565b7f54726176656c20646561646c696e65206e6f74207061737365642079657400005f82015250565b5f615031601e83613e4d565b915061503c82614ffd565b602082019050919050565b5f6020820190508181035f83015261505e81615025565b9050919050565b7f5769746864726177616c206661696c65640000000000000000000000000000005f82015250565b5f615099601183613e4d565b91506150a482615065565b602082019050919050565b5f6020820190508181035f8301526150c68161508d565b9050919050565b7f4552433732313a20696e76616c696420746f6b656e20494400000000000000005f82015250565b5f615101601883613e4d565b915061510c826150cd565b602082019050919050565b5f6020820190508181035f83015261512e816150f5565b9050919050565b7f4552433732313a2061646472657373207a65726f206973206e6f7420612076615f8201527f6c6964206f776e65720000000000000000000000000000000000000000000000602082015250565b5f61518f602983613e4d565b915061519a82615135565b604082019050919050565b5f6020820190508181035f8301526151bc81615183565b9050919050565b7f5374616b65206d757374206265203e20300000000000000000000000000000005f82015250565b5f6151f7601183613e4d565b9150615202826151c3565b602082019050919050565b5f6020820190508181035f830152615224816151eb565b9050919050565b7f54726176656c2064617465206d757374206265203e31352064617973206177615f8201527f7900000000000000000000000000000000000000000000000000000000000000602082015250565b5f615285602183613e4d565b91506152908261522b565b604082019050919050565b5f6020820190508181035f8301526152b281615279565b9050919050565b7f41637469766520636f6d6d69746d656e742065786973747300000000000000005f82015250565b5f6152ed601883613e4d565b91506152f8826152b9565b602082019050919050565b5f6020820190508181035f83015261531a816152e1565b9050919050565b7f466565207472616e73666572206661696c6564000000000000000000000000005f82015250565b5f615355601383613e4d565b915061536082615321565b602082019050919050565b5f6020820190508181035f83015261538281615349565b9050919050565b5f60608201905061539c5f830186613ed3565b6153a96020830185613ed3565b6153b66040830184613ed3565b949350505050565b7f4e465420646f6573206e6f7420657869737400000000000000000000000000005f82015250565b5f6153f2601283613e4d565b91506153fd826153be565b602082019050919050565b5f6020820190508181035f83015261541f816153e6565b9050919050565b7f4665652063616e6e6f74206578636565642035250000000000000000000000005f82015250565b5f61545a601483613e4d565b915061546582615426565b602082019050919050565b5f6020820190508181035f8301526154878161544e565b9050919050565b7f4f776e61626c653a206e6577206f776e657220697320746865207a65726f20615f8201527f6464726573730000000000000000000000000000000000000000000000000000602082015250565b5f6154e8602683613e4d565b91506154f38261548e565b604082019050919050565b5f6020820190508181035f830152615515816154dc565b9050919050565b7f4f776e61626c653a2063616c6c6572206973206e6f7420746865206f776e65725f82015250565b5f615550602083613e4d565b915061555b8261551c565b602082019050919050565b5f6020820190508181035f83015261557d81615544565b9050919050565b7f4552433732313a207472616e736665722066726f6d20696e636f7272656374205f8201527f6f776e6572000000000000000000000000000000000000000000000000000000602082015250565b5f6155de602583613e4d565b91506155e982615584565b604082019050919050565b5f6020820190508181035f83015261560b816155d2565b9050919050565b7f4552433732313a207472616e7366657220746f20746865207a65726f206164645f8201527f7265737300000000000000000000000000000000000000000000000000000000602082015250565b5f61566c602483613e4d565b915061567782615612565b604082019050919050565b5f6020820190508181035f83015261569981615660565b9050919050565b7f5265656e7472616e637947756172643a207265656e7472616e742063616c6c005f82015250565b5f6156d4601f83613e4d565b91506156df826156a0565b602082019050919050565b5f6020820190508181035f830152615701816156c8565b9050919050565b7f5061757361626c653a20706175736564000000000000000000000000000000005f82015250565b5f61573c601083613e4d565b915061574782615708565b602082019050919050565b5f6020820190508181035f83015261576981615730565b9050919050565b5f81905092915050565b7f19457468657265756d205369676e6564204d6573736167653a0a3332000000005f82015250565b5f6157ae601c83615770565b91506157b98261577a565b601c82019050919050565b5f819050919050565b5f819050919050565b6157e76157e2826157c4565b6157cd565b82525050565b5f6157f7826157a2565b915061580382846157d6565b60208201915081905092915050565b61581b816157c4565b82525050565b5f60ff82169050919050565b61583681615821565b82525050565b5f60808201905061584f5f830187615812565b61585c602083018661582d565b6158696040830185615812565b6158766060830184615812565b95945050505050565b7f4552433732313a20617070726f766520746f2063616c6c6572000000000000005f82015250565b5f6158b3601983613e4d565b91506158be8261587f565b602082019050919050565b5f6020820190508181035f8301526158e0816158a7565b9050919050565b7f4552433732313a207472616e7366657220746f206e6f6e2045524337323152655f8201527f63656976657220696d706c656d656e7465720000000000000000000000000000602082015250565b5f615941603283613e4d565b915061594c826158e7565b604082019050919050565b5f6020820190508181035f83015261596e81615935565b9050919050565b5f61597f82613e43565b6159898185615770565b9350615999818560208601613e5d565b80840191505092915050565b5f6159b08285615975565b91506159bc8284615975565b91508190509392505050565b7f496e76616c6964207369676e6174757265206c656e67746800000000000000005f82015250565b5f6159fc601883613e4d565b9150615a07826159c8565b602082019050919050565b5f6020820190508181035f830152615a29816159f0565b9050919050565b7f45524337323155524953746f726167653a2055524920736574206f66206e6f6e5f8201527f6578697374656e7420746f6b656e000000000000000000000000000000000000602082015250565b5f615a8a602e83613e4d565b9150615a9582615a30565b604082019050919050565b5f6020820190508181035f830152615ab781615a7e565b9050919050565b7f5061757361626c653a206e6f74207061757365640000000000000000000000005f82015250565b5f615af2601483613e4d565b9150615afd82615abe565b602082019050919050565b5f6020820190508181035f830152615b1f81615ae6565b9050919050565b5f81519050919050565b5f82825260208201905092915050565b5f615b4a82615b26565b615b548185615b30565b9350615b64818560208601613e5d565b615b6d81613e6b565b840191505092915050565b5f608082019050615b8b5f830187613f2b565b615b986020830186613f2b565b615ba56040830185613ed3565b8181036060830152615bb78184615b40565b905095945050505050565b5f81519050615bd081613d5d565b92915050565b5f60208284031215615beb57615bea613d2a565b5b5f615bf884828501615bc2565b91505092915050565b7f4552433732313a206d696e7420746f20746865207a65726f20616464726573735f82015250565b5f615c35602083613e4d565b9150615c4082615c01565b602082019050919050565b5f6020820190508181035f830152615c6281615c29565b9050919050565b7f4552433732313a20746f6b656e20616c7265616479206d696e746564000000005f82015250565b5f615c9d601c83613e4d565b9150615ca882615c69565b602082019050919050565b5f6020820190508181035f830152615cca81615c91565b905091905056fea26469706673582212207c99488e85a07b187bef4d26335f12fb82338568c8fbaea3155873e3ca8c7ede64736f6c634300081e0033",
    "linkReferences": {}
  },
  "methodIdentifiers": {
    "BASE_REWARD()": "22009af6",
    "BETA()": "071a7541",
    "MIN_STAKE_DURATION()": "e0c570ba",
    "approve(address,uint256)": "095ea7b3",
    "balanceOf(address)": "70a08231",
    "checkIn(bytes)": "304c44d1",
    "commitments(address)": "e8fcf723",
    "destinationMetadata(uint256)": "31d56d3c",
    "destinationNames(uint256)": "4efa8eeb",
    "getApproved(uint256)": "081812fc",
    "getJourneyNFTDetails(uint256)": "9f2a4bbd",
    "getUserJourneyCount(address)": "5c3e4f62",
    "getUserJourneyNFTs(address)": "2d8fb7ab",
    "isApprovedForAll(address,address)": "e985e9c5",
    "journeyNFTs(uint256)": "e237fc5e",
    "locationPools(uint256)": "35ac81cf",
    "name()": "06fdde03",
    "owner()": "8da5cb5b",
    "ownerOf(uint256)": "6352211e",
    "pause()": "8456cb59",
    "paused()": "5c975abb",
    "placeValues(uint256)": "0e6bc64f",
    "platformFeePercent()": "8c639a85",
    "processFailure()": "34363420",
    "renounceOwnership()": "715018a6",
    "safeTransferFrom(address,address,uint256)": "42842e0e",
    "safeTransferFrom(address,address,uint256,bytes)": "b88d4fde",
    "seedPool(uint256)": "025d26bd",
    "setApprovalForAll(address,bool)": "a22cb465",
    "setDestinationMetadata(uint256,string)": "17cd8745",
    "setDestinationName(uint256,string)": "a0d9eeab",
    "setPlaceValue(uint256,uint256)": "c0c1fee5",
    "setPlatformFeePercent(uint256)": "cab230d2",
    "setTreasuryAddress(address)": "6605bfda",
    "setVerifierAddress(address)": "17e95526",
    "stake(uint256,uint256)": "7b0472f0",
    "supportsInterface(bytes4)": "01ffc9a7",
    "symbol()": "95d89b41",
    "tokenURI(uint256)": "c87b56dd",
    "transferFrom(address,address,uint256)": "23b872dd",
    "transferOwnership(address)": "f2fde38b",
    "treasuryAddress()": "c5f956af",
    "unpause()": "3f4ba83a",
    "userJourneyNFTs(address,uint256)": "0e526b14",
    "userProfits(address)": "be354836",
    "verifierAddress()": "18bdffbb",
    "withdrawFees()": "476343ee"
  },
  "id": 45
}